{"abi":[{"type":"constructor","inputs":[],"stateMutability":"nonpayable"},{"type":"function","name":"approve","inputs":[{"name":"to","type":"address","internalType":"address"},{"name":"tokenId","type":"uint256","internalType":"uint256"}],"outputs":[],"stateMutability":"nonpayable"},{"type":"function","name":"balanceOf","inputs":[{"name":"owner","type":"address","internalType":"address"}],"outputs":[{"name":"","type":"uint256","internalType":"uint256"}],"stateMutability":"view"},{"type":"function","name":"getApproved","inputs":[{"name":"tokenId","type":"uint256","internalType":"uint256"}],"outputs":[{"name":"","type":"address","internalType":"address"}],"stateMutability":"view"},{"type":"function","name":"getMaxSupply","inputs":[],"outputs":[{"name":"","type":"uint256","internalType":"uint256"}],"stateMutability":"view"},{"type":"function","name":"isApprovedForAll","inputs":[{"name":"owner","type":"address","internalType":"address"},{"name":"operator","type":"address","internalType":"address"}],"outputs":[{"name":"","type":"bool","internalType":"bool"}],"stateMutability":"view"},{"type":"function","name":"maxSupply","inputs":[],"outputs":[{"name":"","type":"uint256","internalType":"uint256"}],"stateMutability":"view"},{"type":"function","name":"mintNFT","inputs":[{"name":"jsonURI","type":"string","internalType":"string"}],"outputs":[{"name":"","type":"uint256","internalType":"uint256"}],"stateMutability":"nonpayable"},{"type":"function","name":"name","inputs":[],"outputs":[{"name":"","type":"string","internalType":"string"}],"stateMutability":"view"},{"type":"function","name":"owner","inputs":[],"outputs":[{"name":"","type":"address","internalType":"address"}],"stateMutability":"view"},{"type":"function","name":"ownerOf","inputs":[{"name":"tokenId","type":"uint256","internalType":"uint256"}],"outputs":[{"name":"","type":"address","internalType":"address"}],"stateMutability":"view"},{"type":"function","name":"renounceOwnership","inputs":[],"outputs":[],"stateMutability":"nonpayable"},{"type":"function","name":"safeTransferFrom","inputs":[{"name":"from","type":"address","internalType":"address"},{"name":"to","type":"address","internalType":"address"},{"name":"tokenId","type":"uint256","internalType":"uint256"}],"outputs":[],"stateMutability":"nonpayable"},{"type":"function","name":"safeTransferFrom","inputs":[{"name":"from","type":"address","internalType":"address"},{"name":"to","type":"address","internalType":"address"},{"name":"tokenId","type":"uint256","internalType":"uint256"},{"name":"data","type":"bytes","internalType":"bytes"}],"outputs":[],"stateMutability":"nonpayable"},{"type":"function","name":"setApprovalForAll","inputs":[{"name":"operator","type":"address","internalType":"address"},{"name":"approved","type":"bool","internalType":"bool"}],"outputs":[],"stateMutability":"nonpayable"},{"type":"function","name":"setMaxSupply","inputs":[],"outputs":[{"name":"","type":"uint256","internalType":"uint256"}],"stateMutability":"nonpayable"},{"type":"function","name":"supportsInterface","inputs":[{"name":"interfaceId","type":"bytes4","internalType":"bytes4"}],"outputs":[{"name":"","type":"bool","internalType":"bool"}],"stateMutability":"view"},{"type":"function","name":"symbol","inputs":[],"outputs":[{"name":"","type":"string","internalType":"string"}],"stateMutability":"view"},{"type":"function","name":"tokenURI","inputs":[{"name":"tokenId","type":"uint256","internalType":"uint256"}],"outputs":[{"name":"","type":"string","internalType":"string"}],"stateMutability":"view"},{"type":"function","name":"transferFrom","inputs":[{"name":"from","type":"address","internalType":"address"},{"name":"to","type":"address","internalType":"address"},{"name":"tokenId","type":"uint256","internalType":"uint256"}],"outputs":[],"stateMutability":"nonpayable"},{"type":"function","name":"transferOwnership","inputs":[{"name":"newOwner","type":"address","internalType":"address"}],"outputs":[],"stateMutability":"nonpayable"},{"type":"event","name":"Approval","inputs":[{"name":"owner","type":"address","indexed":true,"internalType":"address"},{"name":"approved","type":"address","indexed":true,"internalType":"address"},{"name":"tokenId","type":"uint256","indexed":true,"internalType":"uint256"}],"anonymous":false},{"type":"event","name":"ApprovalForAll","inputs":[{"name":"owner","type":"address","indexed":true,"internalType":"address"},{"name":"operator","type":"address","indexed":true,"internalType":"address"},{"name":"approved","type":"bool","indexed":false,"internalType":"bool"}],"anonymous":false},{"type":"event","name":"BatchMetadataUpdate","inputs":[{"name":"_fromTokenId","type":"uint256","indexed":false,"internalType":"uint256"},{"name":"_toTokenId","type":"uint256","indexed":false,"internalType":"uint256"}],"anonymous":false},{"type":"event","name":"MetadataUpdate","inputs":[{"name":"_tokenId","type":"uint256","indexed":false,"internalType":"uint256"}],"anonymous":false},{"type":"event","name":"OwnershipTransferred","inputs":[{"name":"previousOwner","type":"address","indexed":true,"internalType":"address"},{"name":"newOwner","type":"address","indexed":true,"internalType":"address"}],"anonymous":false},{"type":"event","name":"Transfer","inputs":[{"name":"from","type":"address","indexed":true,"internalType":"address"},{"name":"to","type":"address","indexed":true,"internalType":"address"},{"name":"tokenId","type":"uint256","indexed":true,"internalType":"uint256"}],"anonymous":false},{"type":"error","name":"ERC721IncorrectOwner","inputs":[{"name":"sender","type":"address","internalType":"address"},{"name":"tokenId","type":"uint256","internalType":"uint256"},{"name":"owner","type":"address","internalType":"address"}]},{"type":"error","name":"ERC721InsufficientApproval","inputs":[{"name":"operator","type":"address","internalType":"address"},{"name":"tokenId","type":"uint256","internalType":"uint256"}]},{"type":"error","name":"ERC721InvalidApprover","inputs":[{"name":"approver","type":"address","internalType":"address"}]},{"type":"error","name":"ERC721InvalidOperator","inputs":[{"name":"operator","type":"address","internalType":"address"}]},{"type":"error","name":"ERC721InvalidOwner","inputs":[{"name":"owner","type":"address","internalType":"address"}]},{"type":"error","name":"ERC721InvalidReceiver","inputs":[{"name":"receiver","type":"address","internalType":"address"}]},{"type":"error","name":"ERC721InvalidSender","inputs":[{"name":"sender","type":"address","internalType":"address"}]},{"type":"error","name":"ERC721NonexistentToken","inputs":[{"name":"tokenId","type":"uint256","internalType":"uint256"}]},{"type":"error","name":"OwnableInvalidOwner","inputs":[{"name":"owner","type":"address","internalType":"address"}]},{"type":"error","name":"OwnableUnauthorizedAccount","inputs":[{"name":"account","type":"address","internalType":"address"}]}],"bytecode":{"object":"0x60806040526064600955348015610014575f80fd5b50336040518060400160405280600b81526020017f426f7265644e61737365720000000000000000000000000000000000000000008152506040518060400160405280600381526020017f424e530000000000000000000000000000000000000000000000000000000000815250815f90816100909190610425565b5080600190816100a09190610425565b5050505f73ffffffffffffffffffffffffffffffffffffffff168173ffffffffffffffffffffffffffffffffffffffff1603610113575f6040517f1e4fbdf700000000000000000000000000000000000000000000000000000000815260040161010a9190610533565b60405180910390fd5b6101228161012860201b60201c565b5061054c565b5f60075f9054906101000a900473ffffffffffffffffffffffffffffffffffffffff1690508160075f6101000a81548173ffffffffffffffffffffffffffffffffffffffff021916908373ffffffffffffffffffffffffffffffffffffffff1602179055508173ffffffffffffffffffffffffffffffffffffffff168173ffffffffffffffffffffffffffffffffffffffff167f8be0079c531659141344cd1fd0a4f28419497f9722a3daafe3b4186f6b6457e060405160405180910390a35050565b5f81519050919050565b7f4e487b71000000000000000000000000000000000000000000000000000000005f52604160045260245ffd5b7f4e487b71000000000000000000000000000000000000000000000000000000005f52602260045260245ffd5b5f600282049050600182168061026657607f821691505b60208210810361027957610278610222565b5b50919050565b5f819050815f5260205f209050919050565b5f6020601f8301049050919050565b5f82821b905092915050565b5f600883026102db7fffffffffffffffffffffffffffffffffffffffffffffffffffffffffffffffff826102a0565b6102e586836102a0565b95508019841693508086168417925050509392505050565b5f819050919050565b5f819050919050565b5f61032961032461031f846102fd565b610306565b6102fd565b9050919050565b5f819050919050565b6103428361030f565b61035661034e82610330565b8484546102ac565b825550505050565b5f90565b61036a61035e565b610375818484610339565b505050565b5b818110156103985761038d5f82610362565b60018101905061037b565b5050565b601f8211156103dd576103ae8161027f565b6103b784610291565b810160208510156103c6578190505b6103da6103d285610291565b83018261037a565b50505b505050565b5f82821c905092915050565b5f6103fd5f19846008026103e2565b1980831691505092915050565b5f61041583836103ee565b9150826002028217905092915050565b61042e826101eb565b67ffffffffffffffff811115610447576104466101f5565b5b610451825461024f565b61045c82828561039c565b5f60209050601f83116001811461048d575f841561047b578287015190505b610485858261040a565b8655506104ec565b601f19841661049b8661027f565b5f5b828110156104c25784890151825560018201915060208501945060208101905061049d565b868310156104df57848901516104db601f8916826103ee565b8355505b6001600288020188555050505b505050505050565b5f73ffffffffffffffffffffffffffffffffffffffff82169050919050565b5f61051d826104f4565b9050919050565b61052d81610513565b82525050565b5f6020820190506105465f830184610524565b92915050565b612755806105595f395ff3fe608060405234801561000f575f80fd5b506004361061012a575f3560e01c80638da5cb5b116100ab578063c87b56dd1161006f578063c87b56dd1461031a578063d5abeb011461034a578063e985e9c514610368578063f2fde38b14610398578063fb37e883146103b45761012a565b80638da5cb5b1461028857806395d89b41146102a6578063a22cb465146102c4578063b1839d15146102e0578063b88d4fde146102fe5761012a565b806342842e0e116100f257806342842e0e146101e45780634c0f38c2146102005780636352211e1461021e57806370a082311461024e578063715018a61461027e5761012a565b806301ffc9a71461012e57806306fdde031461015e578063081812fc1461017c578063095ea7b3146101ac57806323b872dd146101c8575b5f80fd5b61014860048036038101906101439190611ba0565b6103e4565b6040516101559190611be5565b60405180910390f35b610166610444565b6040516101739190611c6e565b60405180910390f35b61019660048036038101906101919190611cc1565b6104d3565b6040516101a39190611d2b565b60405180910390f35b6101c660048036038101906101c19190611d6e565b6104ee565b005b6101e260048036038101906101dd9190611dac565b610504565b005b6101fe60048036038101906101f99190611dac565b610603565b005b610208610622565b6040516102159190611e0b565b60405180910390f35b61023860048036038101906102339190611cc1565b61062b565b6040516102459190611d2b565b60405180910390f35b61026860048036038101906102639190611e24565b61063c565b6040516102759190611e0b565b60405180910390f35b6102866106f2565b005b610290610705565b60405161029d9190611d2b565b60405180910390f35b6102ae61072d565b6040516102bb9190611c6e565b60405180910390f35b6102de60048036038101906102d99190611e79565b6107bd565b005b6102e86107d3565b6040516102f59190611e0b565b60405180910390f35b61031860048036038101906103139190611fe3565b6107f9565b005b610334600480360381019061032f9190611cc1565b61081e565b6040516103419190611c6e565b60405180910390f35b610352610929565b60405161035f9190611e0b565b60405180910390f35b610382600480360381019061037d9190612063565b61092f565b60405161038f9190611be5565b60405180910390f35b6103b260048036038101906103ad9190611e24565b6109bd565b005b6103ce60048036038101906103c9919061213f565b610a41565b6040516103db9190611e0b565b60405180910390f35b5f634906490660e01b7bffffffffffffffffffffffffffffffffffffffffffffffffffffffff1916827bffffffffffffffffffffffffffffffffffffffffffffffffffffffff1916148061043d575061043c82610b4f565b5b9050919050565b60605f8054610452906121b3565b80601f016020809104026020016040519081016040528092919081815260200182805461047e906121b3565b80156104c95780601f106104a0576101008083540402835291602001916104c9565b820191905f5260205f20905b8154815290600101906020018083116104ac57829003601f168201915b5050505050905090565b5f6104dd82610c30565b506104e782610cb6565b9050919050565b61050082826104fb610cef565b610cf6565b5050565b5f73ffffffffffffffffffffffffffffffffffffffff168273ffffffffffffffffffffffffffffffffffffffff1603610574575f6040517f64a0ae9200000000000000000000000000000000000000000000000000000000815260040161056b9190611d2b565b60405180910390fd5b5f6105878383610582610cef565b610d08565b90508373ffffffffffffffffffffffffffffffffffffffff168173ffffffffffffffffffffffffffffffffffffffff16146105fd578382826040517f64283d7b0000000000000000000000000000000000000000000000000000000081526004016105f4939291906121e3565b60405180910390fd5b50505050565b61061d83838360405180602001604052805f8152506107f9565b505050565b5f600954905090565b5f61063582610c30565b9050919050565b5f8073ffffffffffffffffffffffffffffffffffffffff168273ffffffffffffffffffffffffffffffffffffffff16036106ad575f6040517f89c62b640000000000000000000000000000000000000000000000000000000081526004016106a49190611d2b565b60405180910390fd5b60035f8373ffffffffffffffffffffffffffffffffffffffff1673ffffffffffffffffffffffffffffffffffffffff1681526020019081526020015f20549050919050565b6106fa610f13565b6107035f610f9a565b565b5f60075f9054906101000a900473ffffffffffffffffffffffffffffffffffffffff16905090565b60606001805461073c906121b3565b80601f0160208091040260200160405190810160405280929190818152602001828054610768906121b3565b80156107b35780601f1061078a576101008083540402835291602001916107b3565b820191905f5260205f20905b81548152906001019060200180831161079657829003601f168201915b5050505050905090565b6107cf6107c8610cef565b838361105d565b5050565b5f6107dc610f13565b60326009546107eb9190612245565b600981905550600954905090565b610804848484610504565b61081861080f610cef565b858585856111c6565b50505050565b606061082982610c30565b505f60065f8481526020019081526020015f208054610847906121b3565b80601f0160208091040260200160405190810160405280929190818152602001828054610873906121b3565b80156108be5780601f10610895576101008083540402835291602001916108be565b820191905f5260205f20905b8154815290600101906020018083116108a157829003601f168201915b505050505090505f6108ce611372565b90505f8151036108e2578192505050610924565b5f825111156109165780826040516020016108fe9291906122b2565b60405160208183030381529060405292505050610924565b61091f84611388565b925050505b919050565b60095481565b5f60055f8473ffffffffffffffffffffffffffffffffffffffff1673ffffffffffffffffffffffffffffffffffffffff1681526020019081526020015f205f8373ffffffffffffffffffffffffffffffffffffffff1673ffffffffffffffffffffffffffffffffffffffff1681526020019081526020015f205f9054906101000a900460ff16905092915050565b6109c5610f13565b5f73ffffffffffffffffffffffffffffffffffffffff168173ffffffffffffffffffffffffffffffffffffffff1603610a35575f6040517f1e4fbdf7000000000000000000000000000000000000000000000000000000008152600401610a2c9190611d2b565b60405180910390fd5b610a3e81610f9a565b50565b5f600954600a5f3373ffffffffffffffffffffffffffffffffffffffff1673ffffffffffffffffffffffffffffffffffffffff1681526020019081526020015f205410610ac3576040517f08c379a0000000000000000000000000000000000000000000000000000000008152600401610aba9061231f565b60405180910390fd5b5f6008549050600a5f3373ffffffffffffffffffffffffffffffffffffffff1673ffffffffffffffffffffffffffffffffffffffff1681526020019081526020015f205f815480929190610b169061233d565b9190505550610b2533826113ee565b610b2f81846114e1565b60085f815480929190610b419061233d565b919050555080915050919050565b5f7f80ac58cd000000000000000000000000000000000000000000000000000000007bffffffffffffffffffffffffffffffffffffffffffffffffffffffff1916827bffffffffffffffffffffffffffffffffffffffffffffffffffffffff19161480610c1957507f5b5e139f000000000000000000000000000000000000000000000000000000007bffffffffffffffffffffffffffffffffffffffffffffffffffffffff1916827bffffffffffffffffffffffffffffffffffffffffffffffffffffffff1916145b80610c295750610c288261153b565b5b9050919050565b5f80610c3b836115a4565b90505f73ffffffffffffffffffffffffffffffffffffffff168173ffffffffffffffffffffffffffffffffffffffff1603610cad57826040517f7e273289000000000000000000000000000000000000000000000000000000008152600401610ca49190611e0b565b60405180910390fd5b80915050919050565b5f60045f8381526020019081526020015f205f9054906101000a900473ffffffffffffffffffffffffffffffffffffffff169050919050565b5f33905090565b610d0383838360016115dd565b505050565b5f80610d13846115a4565b90505f73ffffffffffffffffffffffffffffffffffffffff168373ffffffffffffffffffffffffffffffffffffffff1614610d5457610d5381848661179c565b5b5f73ffffffffffffffffffffffffffffffffffffffff168173ffffffffffffffffffffffffffffffffffffffff1614610ddf57610d935f855f806115dd565b600160035f8373ffffffffffffffffffffffffffffffffffffffff1673ffffffffffffffffffffffffffffffffffffffff1681526020019081526020015f205f82825403925050819055505b5f73ffffffffffffffffffffffffffffffffffffffff168573ffffffffffffffffffffffffffffffffffffffff1614610e5e57600160035f8773ffffffffffffffffffffffffffffffffffffffff1673ffffffffffffffffffffffffffffffffffffffff1681526020019081526020015f205f82825401925050819055505b8460025f8681526020019081526020015f205f6101000a81548173ffffffffffffffffffffffffffffffffffffffff021916908373ffffffffffffffffffffffffffffffffffffffff160217905550838573ffffffffffffffffffffffffffffffffffffffff168273ffffffffffffffffffffffffffffffffffffffff167fddf252ad1be2c89b69c2b068fc378daa952ba7f163c4a11628f55a4df523b3ef60405160405180910390a4809150509392505050565b610f1b610cef565b73ffffffffffffffffffffffffffffffffffffffff16610f39610705565b73ffffffffffffffffffffffffffffffffffffffff1614610f9857610f5c610cef565b6040517f118cdaa7000000000000000000000000000000000000000000000000000000008152600401610f8f9190611d2b565b60405180910390fd5b565b5f60075f9054906101000a900473ffffffffffffffffffffffffffffffffffffffff1690508160075f6101000a81548173ffffffffffffffffffffffffffffffffffffffff021916908373ffffffffffffffffffffffffffffffffffffffff1602179055508173ffffffffffffffffffffffffffffffffffffffff168173ffffffffffffffffffffffffffffffffffffffff167f8be0079c531659141344cd1fd0a4f28419497f9722a3daafe3b4186f6b6457e060405160405180910390a35050565b5f73ffffffffffffffffffffffffffffffffffffffff168273ffffffffffffffffffffffffffffffffffffffff16036110cd57816040517f5b08ba180000000000000000000000000000000000000000000000000000000081526004016110c49190611d2b565b60405180910390fd5b8060055f8573ffffffffffffffffffffffffffffffffffffffff1673ffffffffffffffffffffffffffffffffffffffff1681526020019081526020015f205f8473ffffffffffffffffffffffffffffffffffffffff1673ffffffffffffffffffffffffffffffffffffffff1681526020019081526020015f205f6101000a81548160ff0219169083151502179055508173ffffffffffffffffffffffffffffffffffffffff168373ffffffffffffffffffffffffffffffffffffffff167f17307eab39ab6107e8899845ad3d59bd9653f200f220920489ca2b5937696c31836040516111b99190611be5565b60405180910390a3505050565b5f8373ffffffffffffffffffffffffffffffffffffffff163b111561136b578273ffffffffffffffffffffffffffffffffffffffff1663150b7a02868685856040518563ffffffff1660e01b815260040161122494939291906123d6565b6020604051808303815f875af192505050801561125f57506040513d601f19601f8201168201806040525081019061125c9190612434565b60015b6112e0573d805f811461128d576040519150601f19603f3d011682016040523d82523d5f602084013e611292565b606091505b505f8151036112d857836040517f64a0ae920000000000000000000000000000000000000000000000000000000081526004016112cf9190611d2b565b60405180910390fd5b805181602001fd5b63150b7a0260e01b7bffffffffffffffffffffffffffffffffffffffffffffffffffffffff1916817bffffffffffffffffffffffffffffffffffffffffffffffffffffffff19161461136957836040517f64a0ae920000000000000000000000000000000000000000000000000000000081526004016113609190611d2b565b60405180910390fd5b505b5050505050565b606060405180602001604052805f815250905090565b606061139382610c30565b505f61139d611372565b90505f8151116113bb5760405180602001604052805f8152506113e6565b806113c58461185f565b6040516020016113d69291906122b2565b6040516020818303038152906040525b915050919050565b5f73ffffffffffffffffffffffffffffffffffffffff168273ffffffffffffffffffffffffffffffffffffffff160361145e575f6040517f64a0ae920000000000000000000000000000000000000000000000000000000081526004016114559190611d2b565b60405180910390fd5b5f61146a83835f610d08565b90505f73ffffffffffffffffffffffffffffffffffffffff168173ffffffffffffffffffffffffffffffffffffffff16146114dc575f6040517f73c6ac6e0000000000000000000000000000000000000000000000000000000081526004016114d39190611d2b565b60405180910390fd5b505050565b8060065f8481526020019081526020015f2090816114ff91906125fc565b507ff8e1a15aba9398e019f0b49df1a4fde98ee17ae345cb5f6b5e2c27f5033e8ce78260405161152f9190611e0b565b60405180910390a15050565b5f7f01ffc9a7000000000000000000000000000000000000000000000000000000007bffffffffffffffffffffffffffffffffffffffffffffffffffffffff1916827bffffffffffffffffffffffffffffffffffffffffffffffffffffffff1916149050919050565b5f60025f8381526020019081526020015f205f9054906101000a900473ffffffffffffffffffffffffffffffffffffffff169050919050565b808061161557505f73ffffffffffffffffffffffffffffffffffffffff168273ffffffffffffffffffffffffffffffffffffffff1614155b15611747575f61162484610c30565b90505f73ffffffffffffffffffffffffffffffffffffffff168373ffffffffffffffffffffffffffffffffffffffff161415801561168e57508273ffffffffffffffffffffffffffffffffffffffff168173ffffffffffffffffffffffffffffffffffffffff1614155b80156116a1575061169f818461092f565b155b156116e357826040517fa9fbf51f0000000000000000000000000000000000000000000000000000000081526004016116da9190611d2b565b60405180910390fd5b811561174557838573ffffffffffffffffffffffffffffffffffffffff168273ffffffffffffffffffffffffffffffffffffffff167f8c5be1e5ebec7d5bd14f71427d1e84f3dd0314c0f7b2291e5b200ac8c7c3b92560405160405180910390a45b505b8360045f8581526020019081526020015f205f6101000a81548173ffffffffffffffffffffffffffffffffffffffff021916908373ffffffffffffffffffffffffffffffffffffffff16021790555050505050565b6117a7838383611929565b61185a575f73ffffffffffffffffffffffffffffffffffffffff168373ffffffffffffffffffffffffffffffffffffffff160361181b57806040517f7e2732890000000000000000000000000000000000000000000000000000000081526004016118129190611e0b565b60405180910390fd5b81816040517f177e802f0000000000000000000000000000000000000000000000000000000081526004016118519291906126cb565b60405180910390fd5b505050565b60605f600161186d846119e9565b0190505f8167ffffffffffffffff81111561188b5761188a611ebf565b5b6040519080825280601f01601f1916602001820160405280156118bd5781602001600182028036833780820191505090505b5090505f82602001820190505b60011561191e578080600190039150507f3031323334353637383961626364656600000000000000000000000000000000600a86061a8153600a8581611913576119126126f2565b5b0494505f85036118ca575b819350505050919050565b5f8073ffffffffffffffffffffffffffffffffffffffff168373ffffffffffffffffffffffffffffffffffffffff16141580156119e057508273ffffffffffffffffffffffffffffffffffffffff168473ffffffffffffffffffffffffffffffffffffffff1614806119a157506119a0848461092f565b5b806119df57508273ffffffffffffffffffffffffffffffffffffffff166119c783610cb6565b73ffffffffffffffffffffffffffffffffffffffff16145b5b90509392505050565b5f805f90507a184f03e93ff9f4daa797ed6e38ed64bf6a1f0100000000000000008310611a45577a184f03e93ff9f4daa797ed6e38ed64bf6a1f0100000000000000008381611a3b57611a3a6126f2565b5b0492506040810190505b6d04ee2d6d415b85acef81000000008310611a82576d04ee2d6d415b85acef81000000008381611a7857611a776126f2565b5b0492506020810190505b662386f26fc100008310611ab157662386f26fc100008381611aa757611aa66126f2565b5b0492506010810190505b6305f5e1008310611ada576305f5e1008381611ad057611acf6126f2565b5b0492506008810190505b6127108310611aff576127108381611af557611af46126f2565b5b0492506004810190505b60648310611b225760648381611b1857611b176126f2565b5b0492506002810190505b600a8310611b31576001810190505b80915050919050565b5f604051905090565b5f80fd5b5f80fd5b5f7fffffffff0000000000000000000000000000000000000000000000000000000082169050919050565b611b7f81611b4b565b8114611b89575f80fd5b50565b5f81359050611b9a81611b76565b92915050565b5f60208284031215611bb557611bb4611b43565b5b5f611bc284828501611b8c565b91505092915050565b5f8115159050919050565b611bdf81611bcb565b82525050565b5f602082019050611bf85f830184611bd6565b92915050565b5f81519050919050565b5f82825260208201905092915050565b8281835e5f83830152505050565b5f601f19601f8301169050919050565b5f611c4082611bfe565b611c4a8185611c08565b9350611c5a818560208601611c18565b611c6381611c26565b840191505092915050565b5f6020820190508181035f830152611c868184611c36565b905092915050565b5f819050919050565b611ca081611c8e565b8114611caa575f80fd5b50565b5f81359050611cbb81611c97565b92915050565b5f60208284031215611cd657611cd5611b43565b5b5f611ce384828501611cad565b91505092915050565b5f73ffffffffffffffffffffffffffffffffffffffff82169050919050565b5f611d1582611cec565b9050919050565b611d2581611d0b565b82525050565b5f602082019050611d3e5f830184611d1c565b92915050565b611d4d81611d0b565b8114611d57575f80fd5b50565b5f81359050611d6881611d44565b92915050565b5f8060408385031215611d8457611d83611b43565b5b5f611d9185828601611d5a565b9250506020611da285828601611cad565b9150509250929050565b5f805f60608486031215611dc357611dc2611b43565b5b5f611dd086828701611d5a565b9350506020611de186828701611d5a565b9250506040611df286828701611cad565b9150509250925092565b611e0581611c8e565b82525050565b5f602082019050611e1e5f830184611dfc565b92915050565b5f60208284031215611e3957611e38611b43565b5b5f611e4684828501611d5a565b91505092915050565b611e5881611bcb565b8114611e62575f80fd5b50565b5f81359050611e7381611e4f565b92915050565b5f8060408385031215611e8f57611e8e611b43565b5b5f611e9c85828601611d5a565b9250506020611ead85828601611e65565b9150509250929050565b5f80fd5b5f80fd5b7f4e487b71000000000000000000000000000000000000000000000000000000005f52604160045260245ffd5b611ef582611c26565b810181811067ffffffffffffffff82111715611f1457611f13611ebf565b5b80604052505050565b5f611f26611b3a565b9050611f328282611eec565b919050565b5f67ffffffffffffffff821115611f5157611f50611ebf565b5b611f5a82611c26565b9050602081019050919050565b828183375f83830152505050565b5f611f87611f8284611f37565b611f1d565b905082815260208101848484011115611fa357611fa2611ebb565b5b611fae848285611f67565b509392505050565b5f82601f830112611fca57611fc9611eb7565b5b8135611fda848260208601611f75565b91505092915050565b5f805f8060808587031215611ffb57611ffa611b43565b5b5f61200887828801611d5a565b945050602061201987828801611d5a565b935050604061202a87828801611cad565b925050606085013567ffffffffffffffff81111561204b5761204a611b47565b5b61205787828801611fb6565b91505092959194509250565b5f806040838503121561207957612078611b43565b5b5f61208685828601611d5a565b925050602061209785828601611d5a565b9150509250929050565b5f67ffffffffffffffff8211156120bb576120ba611ebf565b5b6120c482611c26565b9050602081019050919050565b5f6120e36120de846120a1565b611f1d565b9050828152602081018484840111156120ff576120fe611ebb565b5b61210a848285611f67565b509392505050565b5f82601f83011261212657612125611eb7565b5b81356121368482602086016120d1565b91505092915050565b5f6020828403121561215457612153611b43565b5b5f82013567ffffffffffffffff81111561217157612170611b47565b5b61217d84828501612112565b91505092915050565b7f4e487b71000000000000000000000000000000000000000000000000000000005f52602260045260245ffd5b5f60028204905060018216806121ca57607f821691505b6020821081036121dd576121dc612186565b5b50919050565b5f6060820190506121f65f830186611d1c565b6122036020830185611dfc565b6122106040830184611d1c565b949350505050565b7f4e487b71000000000000000000000000000000000000000000000000000000005f52601160045260245ffd5b5f61224f82611c8e565b915061225a83611c8e565b925082820190508082111561227257612271612218565b5b92915050565b5f81905092915050565b5f61228c82611bfe565b6122968185612278565b93506122a6818560208601611c18565b80840191505092915050565b5f6122bd8285612282565b91506122c98284612282565b91508190509392505050565b7f4578636565646564206e756d626572206f66204d696e747300000000000000005f82015250565b5f612309601883611c08565b9150612314826122d5565b602082019050919050565b5f6020820190508181035f830152612336816122fd565b9050919050565b5f61234782611c8e565b91507fffffffffffffffffffffffffffffffffffffffffffffffffffffffffffffffff820361237957612378612218565b5b600182019050919050565b5f81519050919050565b5f82825260208201905092915050565b5f6123a882612384565b6123b2818561238e565b93506123c2818560208601611c18565b6123cb81611c26565b840191505092915050565b5f6080820190506123e95f830187611d1c565b6123f66020830186611d1c565b6124036040830185611dfc565b8181036060830152612415818461239e565b905095945050505050565b5f8151905061242e81611b76565b92915050565b5f6020828403121561244957612448611b43565b5b5f61245684828501612420565b91505092915050565b5f819050815f5260205f209050919050565b5f6020601f8301049050919050565b5f82821b905092915050565b5f600883026124bb7fffffffffffffffffffffffffffffffffffffffffffffffffffffffffffffffff82612480565b6124c58683612480565b95508019841693508086168417925050509392505050565b5f819050919050565b5f6125006124fb6124f684611c8e565b6124dd565b611c8e565b9050919050565b5f819050919050565b612519836124e6565b61252d61252582612507565b84845461248c565b825550505050565b5f90565b612541612535565b61254c818484612510565b505050565b5b8181101561256f576125645f82612539565b600181019050612552565b5050565b601f8211156125b4576125858161245f565b61258e84612471565b8101602085101561259d578190505b6125b16125a985612471565b830182612551565b50505b505050565b5f82821c905092915050565b5f6125d45f19846008026125b9565b1980831691505092915050565b5f6125ec83836125c5565b9150826002028217905092915050565b61260582611bfe565b67ffffffffffffffff81111561261e5761261d611ebf565b5b61262882546121b3565b612633828285612573565b5f60209050601f831160018114612664575f8415612652578287015190505b61265c85826125e1565b8655506126c3565b601f1984166126728661245f565b5f5b8281101561269957848901518255600182019150602085019450602081019050612674565b868310156126b657848901516126b2601f8916826125c5565b8355505b6001600288020188555050505b505050505050565b5f6040820190506126de5f830185611d1c565b6126eb6020830184611dfc565b9392505050565b7f4e487b71000000000000000000000000000000000000000000000000000000005f52601260045260245ffdfea2646970667358221220a6fce8e5827940ce6124525bbb9f858cc4a8880e2156819efa54ace21a666d6b64736f6c634300081a0033","linkReferences":{}},"methodIdentifiers":{"approve(address,uint256)":"095ea7b3","balanceOf(address)":"70a08231","getApproved(uint256)":"081812fc","getMaxSupply()":"4c0f38c2","isApprovedForAll(address,address)":"e985e9c5","maxSupply()":"d5abeb01","mintNFT(string)":"fb37e883","name()":"06fdde03","owner()":"8da5cb5b","ownerOf(uint256)":"6352211e","renounceOwnership()":"715018a6","safeTransferFrom(address,address,uint256)":"42842e0e","safeTransferFrom(address,address,uint256,bytes)":"b88d4fde","setApprovalForAll(address,bool)":"a22cb465","setMaxSupply()":"b1839d15","supportsInterface(bytes4)":"01ffc9a7","symbol()":"95d89b41","tokenURI(uint256)":"c87b56dd","transferFrom(address,address,uint256)":"23b872dd","transferOwnership(address)":"f2fde38b"},"id":38}